{
  "contractName": "Lottery",
  "abi": [
    {
      "inputs": [],
      "stateMutability": "nonpayable",
      "type": "constructor"
    },
    {
      "anonymous": false,
      "inputs": [
        {
          "indexed": false,
          "internalType": "uint256",
          "name": "index",
          "type": "uint256"
        },
        {
          "indexed": false,
          "internalType": "address",
          "name": "bettor",
          "type": "address"
        },
        {
          "indexed": false,
          "internalType": "uint256",
          "name": "amount",
          "type": "uint256"
        },
        {
          "indexed": false,
          "internalType": "bytes1",
          "name": "challenges",
          "type": "bytes1"
        },
        {
          "indexed": false,
          "internalType": "uint256",
          "name": "answerBlockNumber",
          "type": "uint256"
        }
      ],
      "name": "BET",
      "type": "event"
    },
    {
      "anonymous": false,
      "inputs": [
        {
          "indexed": false,
          "internalType": "uint256",
          "name": "index",
          "type": "uint256"
        },
        {
          "indexed": false,
          "internalType": "address",
          "name": "bettor",
          "type": "address"
        },
        {
          "indexed": false,
          "internalType": "uint256",
          "name": "amount",
          "type": "uint256"
        },
        {
          "indexed": false,
          "internalType": "bytes1",
          "name": "challenges",
          "type": "bytes1"
        },
        {
          "indexed": false,
          "internalType": "bytes1",
          "name": "answer",
          "type": "bytes1"
        },
        {
          "indexed": false,
          "internalType": "uint256",
          "name": "answerBlockNumer",
          "type": "uint256"
        }
      ],
      "name": "DRAW",
      "type": "event"
    },
    {
      "anonymous": false,
      "inputs": [
        {
          "indexed": false,
          "internalType": "uint256",
          "name": "index",
          "type": "uint256"
        },
        {
          "indexed": false,
          "internalType": "address",
          "name": "bettor",
          "type": "address"
        },
        {
          "indexed": false,
          "internalType": "uint256",
          "name": "amount",
          "type": "uint256"
        },
        {
          "indexed": false,
          "internalType": "bytes1",
          "name": "challenges",
          "type": "bytes1"
        },
        {
          "indexed": false,
          "internalType": "bytes1",
          "name": "answer",
          "type": "bytes1"
        },
        {
          "indexed": false,
          "internalType": "uint256",
          "name": "answerBlockNumer",
          "type": "uint256"
        }
      ],
      "name": "FAIL",
      "type": "event"
    },
    {
      "anonymous": false,
      "inputs": [
        {
          "indexed": false,
          "internalType": "uint256",
          "name": "index",
          "type": "uint256"
        },
        {
          "indexed": false,
          "internalType": "address",
          "name": "bettor",
          "type": "address"
        },
        {
          "indexed": false,
          "internalType": "uint256",
          "name": "amount",
          "type": "uint256"
        },
        {
          "indexed": false,
          "internalType": "bytes1",
          "name": "challenges",
          "type": "bytes1"
        },
        {
          "indexed": false,
          "internalType": "uint256",
          "name": "answerBlockNumer",
          "type": "uint256"
        }
      ],
      "name": "REFUND",
      "type": "event"
    },
    {
      "anonymous": false,
      "inputs": [
        {
          "indexed": false,
          "internalType": "uint256",
          "name": "index",
          "type": "uint256"
        },
        {
          "indexed": false,
          "internalType": "address",
          "name": "bettor",
          "type": "address"
        },
        {
          "indexed": false,
          "internalType": "uint256",
          "name": "amount",
          "type": "uint256"
        },
        {
          "indexed": false,
          "internalType": "bytes1",
          "name": "challenges",
          "type": "bytes1"
        },
        {
          "indexed": false,
          "internalType": "bytes1",
          "name": "answer",
          "type": "bytes1"
        },
        {
          "indexed": false,
          "internalType": "uint256",
          "name": "answerBlockNumer",
          "type": "uint256"
        }
      ],
      "name": "WIN",
      "type": "event"
    },
    {
      "inputs": [],
      "name": "answerForTest",
      "outputs": [
        {
          "internalType": "bytes32",
          "name": "",
          "type": "bytes32"
        }
      ],
      "stateMutability": "view",
      "type": "function"
    },
    {
      "inputs": [],
      "name": "owner",
      "outputs": [
        {
          "internalType": "address payable",
          "name": "",
          "type": "address"
        }
      ],
      "stateMutability": "view",
      "type": "function"
    },
    {
      "inputs": [],
      "name": "getSomeValue",
      "outputs": [
        {
          "internalType": "uint256",
          "name": "value",
          "type": "uint256"
        }
      ],
      "stateMutability": "pure",
      "type": "function"
    },
    {
      "inputs": [],
      "name": "getPot",
      "outputs": [
        {
          "internalType": "uint256",
          "name": "pot",
          "type": "uint256"
        }
      ],
      "stateMutability": "view",
      "type": "function"
    },
    {
      "inputs": [
        {
          "internalType": "bytes1",
          "name": "challenges",
          "type": "bytes1"
        }
      ],
      "name": "bet",
      "outputs": [
        {
          "internalType": "bool",
          "name": "result",
          "type": "bool"
        }
      ],
      "stateMutability": "payable",
      "type": "function"
    },
    {
      "inputs": [],
      "name": "distribute",
      "outputs": [],
      "stateMutability": "nonpayable",
      "type": "function"
    },
    {
      "inputs": [
        {
          "internalType": "bytes32",
          "name": "answer",
          "type": "bytes32"
        }
      ],
      "name": "setAnswerForTest",
      "outputs": [
        {
          "internalType": "bool",
          "name": "result",
          "type": "bool"
        }
      ],
      "stateMutability": "nonpayable",
      "type": "function"
    },
    {
      "inputs": [
        {
          "internalType": "bytes1",
          "name": "challenges",
          "type": "bytes1"
        },
        {
          "internalType": "bytes32",
          "name": "answer",
          "type": "bytes32"
        }
      ],
      "name": "isMatch",
      "outputs": [
        {
          "internalType": "enum Lottery.BettingResult",
          "name": "",
          "type": "uint8"
        }
      ],
      "stateMutability": "pure",
      "type": "function"
    },
    {
      "inputs": [
        {
          "internalType": "uint256",
          "name": "index",
          "type": "uint256"
        }
      ],
      "name": "getBetInfo",
      "outputs": [
        {
          "internalType": "uint256",
          "name": "answerBlockNumber",
          "type": "uint256"
        },
        {
          "internalType": "address",
          "name": "bettor",
          "type": "address"
        },
        {
          "internalType": "bytes1",
          "name": "challenges",
          "type": "bytes1"
        }
      ],
      "stateMutability": "view",
      "type": "function"
    },
    {
      "inputs": [
        {
          "internalType": "bytes1",
          "name": "challenges",
          "type": "bytes1"
        }
      ],
      "name": "pushBet",
      "outputs": [
        {
          "internalType": "bool",
          "name": "",
          "type": "bool"
        }
      ],
      "stateMutability": "nonpayable",
      "type": "function"
    },
    {
      "inputs": [
        {
          "internalType": "uint256",
          "name": "index",
          "type": "uint256"
        }
      ],
      "name": "popBet",
      "outputs": [
        {
          "internalType": "bool",
          "name": "",
          "type": "bool"
        }
      ],
      "stateMutability": "nonpayable",
      "type": "function"
    }
  ],
  "bytecode": "0x60806040526000600560006101000a81548160ff02191690831515021790555034801561002b57600080fd5b5033600360006101000a81548173ffffffffffffffffffffffffffffffffffffffff021916908373ffffffffffffffffffffffffffffffffffffffff16021790555061187d8061007c6000396000f3fe60806040526004361061009c5760003560e01c80638da5cb5b116100645780638da5cb5b146101b057806399a167d7146101db578063a40674b714610218578063d04c9a8c14610243578063e4fc6b6d14610280578063f4b46f5b146102975761009c565b806303282096146100a1578063403c9fa8146100de5780637009fa361461010957806379141f801461014657806384f7e4f014610185575b600080fd5b3480156100ad57600080fd5b506100c860048036038101906100c391906110ae565b6102c7565b6040516100d591906110f6565b60405180910390f35b3480156100ea57600080fd5b506100f361041a565b604051610100919061112a565b60405180910390f35b34801561011557600080fd5b50610130600480360381019061012b919061117b565b610424565b60405161013d91906110f6565b60405180910390f35b34801561015257600080fd5b5061016d600480360381019061016891906111d4565b6104c6565b60405161017c93929190611251565b60405180910390f35b34801561019157600080fd5b5061019a6105c4565b6040516101a79190611297565b60405180910390f35b3480156101bc57600080fd5b506101c56105ca565b6040516101d291906112d3565b60405180910390f35b3480156101e757600080fd5b5061020260048036038101906101fd91906112ee565b6105f0565b60405161020f91906113a5565b60405180910390f35b34801561022457600080fd5b5061022d6108d9565b60405161023a919061112a565b60405180910390f35b34801561024f57600080fd5b5061026a600480360381019061026591906111d4565b6108e2565b60405161027791906110f6565b60405180910390f35b34801561028c57600080fd5b50610295610946565b005b6102b160048036038101906102ac91906110ae565b610da7565b6040516102be91906110f6565b60405180910390f35b60006102d1610ff8565b33816020019073ffffffffffffffffffffffffffffffffffffffff16908173ffffffffffffffffffffffffffffffffffffffff168152505060034361031691906113ef565b8160000181815250508281604001907effffffffffffffffffffffffffffffffffffffffffffffffffffffffffffff191690817effffffffffffffffffffffffffffffffffffffffffffffffffffffffffffff1916815250508060026000805481526020019081526020016000206000820151816000015560208201518160010160006101000a81548173ffffffffffffffffffffffffffffffffffffffff021916908373ffffffffffffffffffffffffffffffffffffffff16021790555060408201518160010160146101000a81548160ff021916908360f81c021790555090505060008081548092919061040b90611445565b91905055506001915050919050565b6000600454905090565b6000600360009054906101000a900473ffffffffffffffffffffffffffffffffffffffff1673ffffffffffffffffffffffffffffffffffffffff163373ffffffffffffffffffffffffffffffffffffffff16146104b6576040517f08c379a00000000000000000000000000000000000000000000000000000000081526004016104ad906114ea565b60405180910390fd5b8160068190555060019050919050565b60008060008060026000868152602001908152602001600020604051806060016040529081600082015481526020016001820160009054906101000a900473ffffffffffffffffffffffffffffffffffffffff1673ffffffffffffffffffffffffffffffffffffffff1673ffffffffffffffffffffffffffffffffffffffff1681526020016001820160149054906101000a900460f81b7effffffffffffffffffffffffffffffffffffffffffffffffffffffffffffff19167effffffffffffffffffffffffffffffffffffffffffffffffffffffffffffff1916815250509050806000015193508060200151925080604001519150509193909250565b60065481565b600360009054906101000a900473ffffffffffffffffffffffffffffffffffffffff1681565b60008083905060008490506000846000602081106106115761061061150a565b5b1a60f81b905060008560006020811061062d5761062c61150a565b5b1a60f81b90506004847effffffffffffffffffffffffffffffffffffffffffffffffffffffffffffff1916901c93506004847effffffffffffffffffffffffffffffffffffffffffffffffffffffffffffff1916901b93506004827effffffffffffffffffffffffffffffffffffffffffffffffffffffffffffff1916901c91506004827effffffffffffffffffffffffffffffffffffffffffffffffffffffffffffff1916901b91506004837effffffffffffffffffffffffffffffffffffffffffffffffffffffffffffff1916901b92506004837effffffffffffffffffffffffffffffffffffffffffffffffffffffffffffff1916901c92506004817effffffffffffffffffffffffffffffffffffffffffffffffffffffffffffff1916901b90506004817effffffffffffffffffffffffffffffffffffffffffffffffffffffffffffff1916901c9050837effffffffffffffffffffffffffffffffffffffffffffffffffffffffffffff1916827effffffffffffffffffffffffffffffffffffffffffffffffffffffffffffff19161480156108115750827effffffffffffffffffffffffffffffffffffffffffffffffffffffffffffff1916817effffffffffffffffffffffffffffffffffffffffffffffffffffffffffffff1916145b156108235760019450505050506108d3565b837effffffffffffffffffffffffffffffffffffffffffffffffffffffffffffff1916827effffffffffffffffffffffffffffffffffffffffffffffffffffffffffffff191614806108b85750827effffffffffffffffffffffffffffffffffffffffffffffffffffffffffffff1916817effffffffffffffffffffffffffffffffffffffffffffffffffffffffffffff1916145b156108ca5760029450505050506108d3565b60009450505050505b92915050565b60006005905090565b6000600260008381526020019081526020016000206000808201600090556001820160006101000a81549073ffffffffffffffffffffffffffffffffffffffff02191690556001820160146101000a81549060ff0219169055505060019050919050565b600080610951610ff8565b60008060015494505b600054851015610d995760026000868152602001908152602001600020604051806060016040529081600082015481526020016001820160009054906101000a900473ffffffffffffffffffffffffffffffffffffffff1673ffffffffffffffffffffffffffffffffffffffff1673ffffffffffffffffffffffffffffffffffffffff1681526020016001820160149054906101000a900460f81b7effffffffffffffffffffffffffffffffffffffffffffffffffffffffffffff19167effffffffffffffffffffffffffffffffffffffffffffffffffffffffffffff1916815250509250610a4c8360000151610e9c565b915060006002811115610a6257610a6161132e565b5b826002811115610a7557610a7461132e565b5b03610cba576000610a898460000151610efe565b9050610a998460400151826105f0565b915060016002811115610aaf57610aae61132e565b5b826002811115610ac257610ac161132e565b5b03610b5857610ae984602001516611c37937e08000600454610ae491906113ef565b610f26565b945060006004819055507f8219079e2d6c1192fb0ff7f78e6faaf5528ad6687e69749205d87bd4b156912b86856020015187876040015185600060208110610b3457610b3361150a565b5b1a60f81b8960000151604051610b4f96959493929190611598565b60405180910390a15b60006002811115610b6c57610b6b61132e565b5b826002811115610b7f57610b7e61132e565b5b03610c0a576611c37937e0800060046000828254610b9d91906113ef565b925050819055507f3b19d607433249d2ebc766ae82ca3848e9c064f1febb5147bc6e5b21d0adebc58685602001516000876040015185600060208110610be657610be561150a565b5b1a60f81b8960000151604051610c0196959493929190611634565b60405180910390a15b600280811115610c1d57610c1c61132e565b5b826002811115610c3057610c2f61132e565b5b03610cb857610c4a84602001516611c37937e08000610f26565b94507f72ec2e949e4fad9380f9d5db3e2ed0e71cf22c51d8d66424508bdc761a3f4b0e8685602001516611c37937e08000876040015185600060208110610c9457610c9361150a565b5b1a60f81b8960000151604051610caf96959493929190611598565b60405180910390a15b505b60016002811115610cce57610ccd61132e565b5b826002811115610ce157610ce061132e565b5b0315610d9957600280811115610cfa57610cf961132e565b5b826002811115610d0d57610d0c61132e565b5b03610d7c57610d2783602001516611c37937e08000610f26565b93507f59c0185881271a0f53d43e6ab9310091408f9e0ff9ae2512613de800f26b8de48584602001516611c37937e0800086604001518760000151604051610d73959493929190611695565b60405180910390a15b610d85856108e2565b508480610d9190611445565b95505061095a565b846001819055505050505050565b60006611c37937e080003414610df2576040517f08c379a0000000000000000000000000000000000000000000000000000000008152600401610de990611734565b60405180910390fd5b610dfb826102c7565b610e3a576040517f08c379a0000000000000000000000000000000000000000000000000000000008152600401610e31906117a0565b60405180910390fd5b7f100791de9f40bf2d56ffa6dc5597d2fd0b2703ea70bc7548cd74c04f5d215ab76001600054610e6a91906117c0565b333485600343610e7a91906113ef565b604051610e8b9594939291906117f4565b60405180910390a160019050919050565b60008143118015610eb9575081610100610eb691906113ef565b43105b15610ec75760009050610ef9565b814311610ed75760019050610ef9565b81610100610ee591906113ef565b4310610ef45760029050610ef9565b600290505b919050565b6000600560009054906101000a900460ff16610f1c57600654610f1f565b81405b9050919050565b6000806000905060008184610f3b91906117c0565b90508473ffffffffffffffffffffffffffffffffffffffff166108fc829081150290604051600060405180830381858888f19350505050158015610f83573d6000803e3d6000fd5b50600360009054906101000a900473ffffffffffffffffffffffffffffffffffffffff1673ffffffffffffffffffffffffffffffffffffffff166108fc839081150290604051600060405180830381858888f19350505050158015610fec573d6000803e3d6000fd5b50809250505092915050565b604051806060016040528060008152602001600073ffffffffffffffffffffffffffffffffffffffff16815260200160007effffffffffffffffffffffffffffffffffffffffffffffffffffffffffffff191681525090565b600080fd5b60007fff0000000000000000000000000000000000000000000000000000000000000082169050919050565b61108b81611056565b811461109657600080fd5b50565b6000813590506110a881611082565b92915050565b6000602082840312156110c4576110c3611051565b5b60006110d284828501611099565b91505092915050565b60008115159050919050565b6110f0816110db565b82525050565b600060208201905061110b60008301846110e7565b92915050565b6000819050919050565b61112481611111565b82525050565b600060208201905061113f600083018461111b565b92915050565b6000819050919050565b61115881611145565b811461116357600080fd5b50565b6000813590506111758161114f565b92915050565b60006020828403121561119157611190611051565b5b600061119f84828501611166565b91505092915050565b6111b181611111565b81146111bc57600080fd5b50565b6000813590506111ce816111a8565b92915050565b6000602082840312156111ea576111e9611051565b5b60006111f8848285016111bf565b91505092915050565b600073ffffffffffffffffffffffffffffffffffffffff82169050919050565b600061122c82611201565b9050919050565b61123c81611221565b82525050565b61124b81611056565b82525050565b6000606082019050611266600083018661111b565b6112736020830185611233565b6112806040830184611242565b949350505050565b61129181611145565b82525050565b60006020820190506112ac6000830184611288565b92915050565b60006112bd82611201565b9050919050565b6112cd816112b2565b82525050565b60006020820190506112e860008301846112c4565b92915050565b6000806040838503121561130557611304611051565b5b600061131385828601611099565b925050602061132485828601611166565b9150509250929050565b7f4e487b7100000000000000000000000000000000000000000000000000000000600052602160045260246000fd5b6003811061136e5761136d61132e565b5b50565b600081905061137f8261135d565b919050565b600061138f82611371565b9050919050565b61139f81611384565b82525050565b60006020820190506113ba6000830184611396565b92915050565b7f4e487b7100000000000000000000000000000000000000000000000000000000600052601160045260246000fd5b60006113fa82611111565b915061140583611111565b9250827fffffffffffffffffffffffffffffffffffffffffffffffffffffffffffffffff0382111561143a576114396113c0565b5b828201905092915050565b600061145082611111565b91507fffffffffffffffffffffffffffffffffffffffffffffffffffffffffffffffff8203611482576114816113c0565b5b600182019050919050565b600082825260208201905092915050565b7f4f6e6c79206f776e65722063616e207365742074686520616e73776572000000600082015250565b60006114d4601d8361148d565b91506114df8261149e565b602082019050919050565b60006020820190508181036000830152611503816114c7565b9050919050565b7f4e487b7100000000000000000000000000000000000000000000000000000000600052603260045260246000fd5b6000819050919050565b600061155e61155961155484611201565b611539565b611201565b9050919050565b600061157082611543565b9050919050565b600061158282611565565b9050919050565b61159281611577565b82525050565b600060c0820190506115ad600083018961111b565b6115ba6020830188611589565b6115c7604083018761111b565b6115d46060830186611242565b6115e16080830185611242565b6115ee60a083018461111b565b979650505050505050565b6000819050919050565b600061161e611619611614846115f9565b611539565b611111565b9050919050565b61162e81611603565b82525050565b600060c082019050611649600083018961111b565b6116566020830188611589565b6116636040830187611625565b6116706060830186611242565b61167d6080830185611242565b61168a60a083018461111b565b979650505050505050565b600060a0820190506116aa600083018861111b565b6116b76020830187611589565b6116c4604083018661111b565b6116d16060830185611242565b6116de608083018461111b565b9695505050505050565b7f4e6f7420656e6f75676820455448000000000000000000000000000000000000600082015250565b600061171e600e8361148d565b9150611729826116e8565b602082019050919050565b6000602082019050818103600083015261174d81611711565b9050919050565b7f4661696c20746f206164642061206e65772042657420496e666f000000000000600082015250565b600061178a601a8361148d565b915061179582611754565b602082019050919050565b600060208201905081810360008301526117b98161177d565b9050919050565b60006117cb82611111565b91506117d683611111565b9250828210156117e9576117e86113c0565b5b828203905092915050565b600060a082019050611809600083018861111b565b6118166020830187611233565b611823604083018661111b565b6118306060830185611242565b61183d608083018461111b565b969550505050505056fea2646970667358221220d2b25524c8d2df531f4804b7dfce12b1b3fdd4ff650a98c12ede6d75113b2df164736f6c634300080d0033",
  "immutableReferences": {},
  "source": "// SPDX-License-Identifier: MIT\r\npragma solidity >=0.4.22 <0.9.0;\r\n\r\n// payable =      \r\n// byte X => bytes1 O\r\n// payalbe  =      \r\n\r\ncontract Lottery {\r\n    struct BetInfo {\r\n        uint256 answerBlockNumber;\r\n        address payable bettor;\r\n        bytes1 challenges; // byte \r\n    }\r\n\r\n    uint256 private _tail;\r\n    uint256 private _head;\r\n    mapping (uint256 => BetInfo) private _bets;\r\n\r\n    address payable public owner;\r\n\r\n    uint256 constant internal BLOCK_LIMIT = 256;\r\n    uint256 constant internal BET_BLOCK_INTERVAL = 3;\r\n    uint256 constant internal BET_AMOUNT = 5 * 10 ** 15;\r\n\r\n    uint256 private _pot;\r\n    bool private mode = false; // test = False\r\n    bytes32 public answerForTest;\r\n\r\n    enum BlockStatus {Checkable, NotRevealed, BlockLimitPassed}\r\n    enum BettingResult {Fail, Win, Draw}\r\n\r\n    event BET(uint256 index, address bettor, uint256 amount, bytes1 challenges, uint256 answerBlockNumber);\r\n    event WIN(uint256 index, address bettor, uint256 amount, bytes1 challenges, bytes1 answer, uint256 answerBlockNumer);\r\n    event FAIL(uint256 index, address bettor, uint256 amount, bytes1 challenges, bytes1 answer, uint256 answerBlockNumer);\r\n    event DRAW(uint256 index, address bettor, uint256 amount, bytes1 challenges, bytes1 answer, uint256 answerBlockNumer);\r\n    event REFUND(uint256 index, address bettor, uint256 amount, bytes1 challenges, uint256 answerBlockNumer);\r\n\r\n    constructor() {\r\n        owner = payable(msg.sender);\r\n    }\r\n\r\n    function getSomeValue() public pure returns (uint256 value) {\r\n        return 5;\r\n    }\r\n\r\n    function getPot() public view returns (uint256 pot) {\r\n        return _pot;\r\n    }\r\n\r\n    // Bet\r\n    function bet(bytes1 challenges) public payable returns (bool result) {\r\n        require(msg.value == BET_AMOUNT, \"Not enough ETH\");\r\n\r\n        require(pushBet(challenges), \"Fail to add a new Bet Info\");\r\n\r\n        emit BET(_tail-1, msg.sender, msg.value, challenges, block.number + BET_BLOCK_INTERVAL);\r\n\r\n        return true;\r\n    }\r\n\r\n\r\n\r\n    // Distribute\r\n    function distribute() public {\r\n        uint256 cur;\r\n        uint256 transferAmount;\r\n\r\n        BetInfo memory b;\r\n        BlockStatus currentBlockStatus;\r\n        BettingResult currentBettingResult;\r\n\r\n        for(cur =_head; cur < _tail; cur++) {\r\n            b = _bets[cur];\r\n            currentBlockStatus = getBlockStatus(b.answerBlockNumber);\r\n            // Checkable : answerBlockNumber < block.number < answerBlockNumber + block limit\r\n            if(currentBlockStatus == BlockStatus.Checkable) {\r\n                bytes32 answerBlockHash = getAnswerBlockHash(b.answerBlockNumber);\r\n                currentBettingResult = isMatch(b.challenges, answerBlockHash);\r\n                \r\n                //if win, bettor get pot\r\n                if (currentBettingResult == BettingResult.Win) {\r\n                    transferAmount = transferAfterPayingFee(b.bettor, _pot + BET_AMOUNT);\r\n                    _pot = 0;\r\n                    emit WIN(cur, b.bettor, transferAmount, b.challenges, answerBlockHash[0], b.answerBlockNumber);\r\n                } \r\n                //if fail, pot get bettor's money\r\n                if (currentBettingResult == BettingResult.Fail) {\r\n                    _pot += BET_AMOUNT;\r\n                    emit FAIL(cur, b.bettor, 0, b.challenges, answerBlockHash[0], b.answerBlockNumber);\r\n                } \r\n\r\n                //if draw, refund\r\n                if (currentBettingResult == BettingResult.Draw) {\r\n                    transferAmount = transferAfterPayingFee(b.bettor, BET_AMOUNT);\r\n                    emit DRAW(cur, b.bettor, BET_AMOUNT, b.challenges, answerBlockHash[0], b.answerBlockNumber);\r\n                } \r\n            }\r\n            // Not Revealed : block.number <= answerBlcokNumber\r\n            if(currentBlockStatus == BlockStatus.NotRevealed) {\r\n                break;\r\n            }\r\n            // Block Limit passed : block.number >= answerBlockNumber + block limit\r\n            if(currentBlockStatus == BlockStatus.BlockLimitPassed) {\r\n                // refund\r\n                transferAmount = transferAfterPayingFee(b.bettor, BET_AMOUNT);\r\n                // emit refund\r\n                emit REFUND(cur, b.bettor, BET_AMOUNT, b.challenges, b.answerBlockNumber);\r\n            }\r\n            // check the answer\r\n            popBet(cur);\r\n        }\r\n        _head = cur;\r\n    }\r\n\r\n    function transferAfterPayingFee(address payable addr, uint256 amount) internal returns (uint256) {\r\n        uint256 fee = 0;\r\n        uint256 amountWithoutFee = amount - fee;\r\n\r\n        addr.transfer(amountWithoutFee);\r\n        owner.transfer(fee);\r\n\r\n        // transfer =   \r\n        \r\n        return amountWithoutFee;\r\n    }\r\n\r\n    function setAnswerForTest(bytes32 answer) public returns (bool result) {\r\n        require(msg.sender == owner, \"Only owner can set the answer\");\r\n        answerForTest = answer;\r\n        return true;\r\n    }\r\n\r\n    function getAnswerBlockHash(uint256 answerBlockNumber) internal view returns (bytes32 answer) {\r\n        return mode ? blockhash(answerBlockNumber) : answerForTest;\r\n    }\r\n    \r\n    function isMatch(bytes1 challenges, bytes32 answer) public pure returns (BettingResult) {\r\n        // challenges 0xab\r\n        // answer 0xab.... 32 bytes\r\n\r\n        bytes1 c1 = challenges;\r\n        bytes1 c2 = challenges;\r\n\r\n        bytes1 a1 = answer[0];\r\n        bytes1 a2 = answer[0];\r\n        \r\n        // first word parsing\r\n        c1 = c1 >> 4;\r\n        c1 = c1 << 4;\r\n\r\n        a1 = a1 >> 4;\r\n        a1 = a1 << 4;\r\n        \r\n        // second word parsing\r\n        c2 = c2 << 4;\r\n        c2 = c2 >> 4;\r\n\r\n        a2 = a2 << 4;\r\n        a2 = a2 >> 4;\r\n\r\n        if (a1 == c1 && a2 == c2) {\r\n            return BettingResult.Win;\r\n        }\r\n\r\n        if (a1 == c1 || a2 == c2) {\r\n            return BettingResult.Draw;\r\n        }\r\n\r\n        return BettingResult.Fail;\r\n    }\r\n\r\n    function getBlockStatus(uint256 answerBlockNumber) internal view returns (BlockStatus) {\r\n        if(block.number > answerBlockNumber && block.number < BLOCK_LIMIT + answerBlockNumber) {\r\n            return BlockStatus.Checkable;\r\n        }\r\n\r\n        if(block.number <= answerBlockNumber) {\r\n            return BlockStatus.NotRevealed;\r\n        }\r\n\r\n        if(block.number >= BLOCK_LIMIT + answerBlockNumber) {\r\n            return BlockStatus.BlockLimitPassed;\r\n        }\r\n\r\n        return BlockStatus.BlockLimitPassed;\r\n    }\r\n\r\n    \r\n    function getBetInfo(uint256 index) public view returns (uint256 answerBlockNumber, address bettor, bytes1 challenges) {\r\n        BetInfo memory b = _bets[index];\r\n        answerBlockNumber = b.answerBlockNumber;\r\n        bettor = b.bettor;\r\n        challenges = b.challenges;\r\n    }\r\n\r\n    function pushBet(bytes1 challenges) public returns (bool) {\r\n        BetInfo memory b;\r\n        b.bettor = payable(msg.sender);\r\n        b.answerBlockNumber = block.number + BET_BLOCK_INTERVAL;\r\n        b.challenges = challenges;\r\n\r\n        _bets[_tail] = b;\r\n        _tail++;\r\n\r\n        return true;\r\n    }\r\n\r\n    function popBet(uint256 index) public returns (bool) {\r\n        delete _bets[index];\r\n        return true;\r\n    }\r\n}",
  "sourcePath": "C:\\Users\\rkdeh\\BC_practice\\contracts\\Lottery.sol",
  "compiler": {
    "name": "solc",
    "version": "0.8.13+commit.abaa5c0e.Emscripten.clang"
  },
  "schemaVersion": "3.4.7",
  "updatedAt": "2022-05-08T09:58:37.175Z",
  "devdoc": {
    "kind": "dev",
    "methods": {},
    "version": 1
  },
  "userdoc": {
    "kind": "user",
    "methods": {},
    "version": 1
  }
}